:04000000DAEF00F043
:10000800FACF9CF0FBCF9DF0E9CF9EF0EACF9FF0AE
:10001800E1CFA0F0E2CFA1F0D9CFA2F0DACFA3F0E0
:10002800F3CFA4F0F4CFA5F0F6CFA6F0F7CFA7F062
:10003800F8CFA8F0F5CFA9F0A4ECDCF0F0A20ED030
:100048000201D42B020122EED4F0050EDF6403D0A6
:10005800000E0201D46F1BECD4F0F092F0A06CD02B
:1000680081B269D0A7ECDBF001C0AEF002C0AFF0FE
:1000780003C0B0F004C0B1F00001D5C098F0000191
:10008800D6C099F00001D7C09AF00001D8C09BF003
:100098000001981F991F9A1F9B1F982B000E9923E8
:1000A8009A239B230001AE51000198250001AA6FF5
:1000B8000001AF51000199210001AB6F0001B0515F
:1000C80000019A210001AC6F0001B15100019B2190
:1000D8000001AD6F580E0001986F020E996F000E67
:1000E8009A6F000E9B6F000198510001AA5D0001F4
:1000F80099510001AB5900019A510001AC59000116
:100108009B510001AD59D8B004D0FE0E0001B26F6A
:1001180002D00001B269AEC0D5F0AFC0D6F0B0C011
:10012800D7F0B1C0D8F080A402D00001B26D0001B0
:10013800B251A0ECD9F0F090F0A403D03EECABF0B3
:10014800F094F2A20BD08CA006D082ECDDF0010E68
:100158005BECDDF002D069ECD8F0F292F2A003D0AB
:100168004DECC9F0F2909EA003D081ECD9F09E909E
:10017800F28EA9C0F5FFA8C0F8FFA7C0F7FFA6C078
:10018800F6FFA5C0F4FFA4C0F3FFA3C0DAFFA2C026
:10019800D9FFA1C0E2FFA0C0E1FF9FC0EAFF9EC057
:1001A800E9FF9DC0FBFF9CC0FAFF1100E1EFD4F00E
:10FE2A0000FF0FC40F8B0F520F1A0FE30EAC0E77A1
:10FE3A000E420E0E0EDA0DA70D760D440D140DE4CA
:10FE4A000CB50C860C580C2B0CFF0BD30BA80B7D96
:10FE5A000B530B2A0B010BD90AB10A8A0A630A3D12
:10FE6A000A180AF309CE09AB09870964094209206D
:10FE7A0009FF08DE08BD089D087E085F08400822C1
:10FE8A0008010000000A00000064000000E8030006
:10FE9A000010270000A086010040420F00809698BB
:10FEAA000000E1F50500CA9A3B00803FCDCC3DD762
:10FEBA00233C12833AB7D138C62737388635C0D69D
:10FECA0033CC2B32708930E7DB2EE53C1E42A20D83
:10FEDA0000803F00204100C842007A44401C46503E
:10FEEA00C34724744997184BBCBE4C6B6E4E03151E
:10FEFA005079AD60F3497101001400140000D0017B
:10FF0A00000020000057015001100141540457011C
:10FF1A00500100045151040004A3000000830802A8
:10FF2A008B0802532F523A203139322E306B487ADD
:10FF3A0020202000532F523A202039362E306B4889
:10FF4A007A20202000532F523A202034382E306B4A
:10FF5A00487A20202000532F523A202034342E3160
:10FF6A006B487A20202000532F523A202038382E0E
:10FF7A00326B487A20202000532F523A20313736EC
:10FF8A002E346B487A2020200053746F72656420E7
:10FF9A00202020202020202020004E6F206368612E
:10FFAA006E67652020202020202000457261736939
:10FFBA006E672E2E2E202020202020005772697472
:10FFCA00696E672E2E2E2020202020200050726578
:10FFDA00706172696E672E2E2E2020202000566FC7
:10FFEA006C756D652025372E33666442005468654A
:06FFFA0044414300000039
:020000040001F9
:10000000010120EE0DF001015651D9260101575191
:10001000DA22DF500101796F010120EE08F00101C1
:100020005651D92601015751DA220101DECF75F16F
:100030000101DECF76F10101DECF77F10101DECFE4
:1000400078F1010120EE04F001015651D926010199
:100050005751DA220101DECF65F10101DECF66F1F1
:100060000101DECF67F10101DECF68F10101F791F7
:100070000101F7930101F7950101F7B904D194EC5F
:10008000DBF000C15AF101C15BF102C15CF103C1B7
:100090005DF1E60E01015A250101EE6FF50E010139
:1000A0005B210101EF6F050E01015C210101F06F81
:1000B000000E01015D210101F16FE5D0010179A57B
:1000C00003D0F0ECCDF01200010179A911D075C177
:1000D000BDF176C1BEF177C1BFF178C1C0F1000EAC
:1000E0000101286F040EC1EC96F0F0ECCDF0120087
:1000F000010179A326D0010E010165250101C16F1F
:10010000000E010166210101C26F000E010167218D
:100110000101C36F000E010168210101C46F19ECD8
:10012000BFF0010108C1DCF1010109C1DDF1010EDF
:100130000101286F120EC1EC96F0060E0101F66F58
:100140001200F0ECCDF01200010179B512000101AE
:1001500079A934D0010178510101C0190EE10101E2
:1001600077510101BF1909E1010176510101BE1961
:1001700004E1010175510101BD19D8B41FD0BDC101
:1001800065F1BEC166F1BFC167F1C0C168F175C15B
:10019000BDF176C1BEF177C1BFF178C1C0F1010EEA
:1001A0000101286F040EC1EC96F065C1BDF166C176
:1001B000BEF167C1BFF168C1C0F11200010179A3AE
:1001C0001200010E010165250101C16F000E010140
:1001D00066210101C26F000E010167210101C36F99
:1001E000000E010168210101C46F010120EE0EF033
:1001F00001015651D92601015751DA220101DECF02
:10020000CBF10101DDCFCCF119ECBFF0010108C148
:10021000DCF1010109C1DDF1010179A92AD0010E4A
:100220000101286F100EC1EC96F0070E0101F66F68
:1002300094ECDBF000C15AF101C15BF102C15CF149
:1002400003C15DF1E60E01015A250101EE6FF50EC5
:1002500001015B210101EF6F050E01015C2101012C
:10026000F06F000E01015D210101F16F0101F799AD
:100270001200010E0101286F120EC1EC96F0060E5D
:100280000101F66F12000101F651040AD8B416D725
:10029000010AD8B459D758C169F159C16AF10101AD
:1002A00079A103D00101694B6A2B010179A303D025
:1002B0000101694B6A2B010121EEECF0010111EE05
:1002C000EAF0E652DE52DD50E55C02E1DF50E75C29
:1002D000D8A02AD0010121EEECF0DECF5AF1DDCF1B
:1002E0005BF101015A1F5B1F5A4B5B2B0101EA5165
:1002F00001015A270101EB5101015B230101E25188
:1003000001015A270101E35101015B2301015A1F39
:100310005B1F5A4B5B2B0101E45101015A2501017E
:10032000736F0101E5511AD0010121EEEAF0DECF31
:100330005AF1DDCF5BF101015A1F5B1F5A4B5B2B5A
:100340000101EC5101015A270101ED5101015B232B
:10035000FF0E01015A250101736FFF0E01015B21A0
:100360000101746F0101C1C15AF10101C2C15BF108
:100370000101C3C15CF10101C4C15DF101015A1F5A
:100380005B1F5C1F5D1F5A2B000E5B235C235D23EC
:100390000101655101015A2501016F6F010166518B
:1003A00001015B210101706F0101675101015C21B5
:1003B0000101716F0101685101015D210101726F3D
:1003C0006FC17CF170C17DF1000E0101646F01010C
:1003D0006A516911D8B4C2D0010174517311D8B4F3
:1003E000E8D0010172BF1ED00101735101015A6FA3
:1003F0000101745101015B6F01015C6B01015D6BD7
:1004000001015A5101016F5D01015B5101017059F8
:1004100001015C510101715901015D5101017259E4
:10042000D8A05DD00101695101016F2501015A6F0A
:1004300001016A510101702101015B6F000E010190
:10044000712101015C6F000E0101722101015D6FDC
:1004500001015D51800A800F08E1000E5C5D05E13D
:10046000000E5B5D02E1010E5A5DD8A03BD0010198
:1004700069C15AF101016AC15BF101015A1F5B1F99
:100480005A4B5B2B0101735101015A2501015C6F2D
:100490000101745101015B2101015D6F01015E6B7E
:1004A00001015DBF5E0701015E5101015F6F010146
:1004B0005F51800A0101606F01016F5101015C5DB4
:1004C0000101705101015D590101715101015E5934
:1004D00001017251800A01016059D8A003D0010EB8
:1004E0000101646F0101735101015A6F01017451DF
:1004F00001015B6F01015C6B01015D6B01017251D8
:10050000800A01015E6F01015A5101016F5D010115
:100510005B510101705901015C51010171590101E7
:100520005D51800A01015E59D8B043D001017CC100
:100530005AF101017DC15BF10101695101015A27A5
:1005400001016A5101015B2301015B51800A800FA7
:10055000010ED8B45A5DD8A02CD028D00101725118
:100560006F1170117111D8B421D0010172BF21D067
:100570000101735101015A6F0101745101015B6F57
:1005800001015C6B01015D6B01015A5101016F5D5D
:1005900001015B510101705901015C510101715967
:1005A00001015D5101017259D8B003D0010E010162
:1005B000646F010164670AD0010179B51200010E70
:1005C0000101286F100EC1EC96F0120079C15AF1AA
:1005D000060E01015A17D8B403D0F0ECCDF012008A
:1005E000010179A912004FEF87F001017851010153
:1005F000C0190EE1010177510101BF1909E10101A3
:1006000076510101BE1904E1010175510101BD19C5
:10061000D8B41FD0BDC165F1BEC166F1BFC167F1DD
:10062000C0C168F175C1BDF176C1BEF177C1BFF13E
:1006300078C1C0F1010E0101286F040EC1EC96F0E3
:1006400065C1BDF166C1BEF167C1BFF168C1C0F14E
:100650001200070E0101F66F010121EEC5F0DECF99
:100660005AF1DDCF5BF101015A1F5B1F5A4B5B2B27
:100670000101E65101015A2501017A6F0101E7519B
:1006800001015B2101017B6F01017B51800AF36E47
:10069000800EF35C000ED8B47A5DD8B01BD0010197
:1006A000E0C15AF10101E1C15BF101015A1F5B1F79
:1006B0005A4B5B2B0101E25101015A270101E35121
:1006C00001015B2301015A5101017A2701015B51AC
:1006D00001017B2301017A510101BD2501016B6FED
:1006E00001017B510101BE2101016C6F000E01016E
:1006F000BF2101016D6F000E0101C02101016E6F6C
:1007000001016BC15AF101016CC15BF101016DC1C5
:100710005CF101016EC15DF101015A1F5B1F5C1F9D
:100720005D1F5A2B000E5B235C235D230101755175
:1007300001015A2501016B6F0101765101015B2115
:1007400001016C6F0101775101015C2101016D6FA5
:100750000101785101015D2101016E6F01016E51AE
:10076000800A800F0BE1000E01016D5D07E1000EB4
:1007700001016C5D03E1010E01016B5DD8A01AD08F
:100780000101DBA107D001016B056C116D116E1128
:10079000D8B407D0000E0101286F100EC1EC96F0FE
:1007A000120001017507000E0101765B0101775B04
:1007B0000101785B010121EEE8F0DECF5AF1DDCFD7
:1007C0005BF101015A1F5B1F5A4B5B2B0101C551A5
:1007D00001015A2501015C6F0101C65101015B2134
:1007E00001015D6F01015E6B01015DBF5E070101EB
:1007F0005E5101015F6F01015C1F5D1F5E1F5F1F86
:100800005C2B000E5D235E235F230101BD510101BE
:100810005C2501016B6F0101BE5101015D210101E8
:100820006C6F0101BF5101015E2101016D6F01017A
:10083000C05101015F2101016E6F0101E851010109
:10084000C55D0101E9510101C659D8B02BD00101A4
:10085000E0C15AF10101E1C15BF101015A1F5B1FC7
:100860005A4B5B2B0101E25101015A2501015C6FDA
:100870000101E35101015B2101015D6F01015E6B2B
:1008800001015F6B01015C5101016B5F01015D5171
:1008900001016C5B01015E5101016D5B01015F5162
:1008A00001016E5B01016BC15AF101016CC15BF189
:1008B00001016DC15CF101016EC15DF101015A1FC1
:1008C0005B1F5C1F5D1F5A2B000E5B235C235D23A7
:1008D0000101755101015A2501016B6F010176512A
:1008E00001015B2101016C6F0101775101015C2164
:1008F00001016D6F0101785101015D2101016E6FF0
:1009000001016E51800A800F0BE1000E01016D5D47
:1009100007E1000E01016C5D03E1010E01016B5D59
:10092000D8A0FED00101E0C15AF10101E1C15BF1A3
:1009300001015A1F5B1F5A4B5B2B0101E251010160
:100940005A2501015C6F0101E35101015B210101A5
:100950005D6F01015E6B01015F6B01016B51010174
:100960005C5D01016C5101015D5901016D51010195
:100970005E5901016E5101015F59D8A0D1D001012A
:10098000DB970101DB990101F891E8C17AF1E9C136
:100990007BF101016B510101E82701016C5101015B
:1009A000E92301017A510101C55D01017B5101017A
:1009B000C659D8A012D00101E8510101C55D01015D
:1009C000E9510101C659D8B056D0010121EEC5F058
:1009D000DECF5AF1DDCF5BF12FD00101E0C15AF13A
:1009E0000101E1C15BF101015A1F5B1F5A4B5B2BF7
:1009F0000101E25101015A270101E35101015B2389
:100A00000101C55101015A2501017A6F0101C65149
:100A100001015B2101017B6F0101E85101017A5D58
:100A20000101E95101017B59D8B025D001017AC1FA
:100A30005AF101017BC15BF101015A1F5B1F5A4B47
:100A40005B2B0101E85101015A270101E951010124
:100A50005B2301015A510101BD2701015B510101D5
:100A6000BE23000E0101BF23000E0101C023E8C117
:100A7000C5F1E9C1C6F1010121EEE2F0010111EE7B
:100A8000E8F0E652DE52DD50E55C02E1DF50E75C63
:100A9000D8A01BD00101E0C15AF10101E1C15BF115
:100AA00001015A1F5B1F5A4B5B2B0101E2510101EF
:100AB0005A270101E35101015B2301015A51010150
:100AC000E85F01015B510101E95B010121EEE2F008
:100AD000010111EEC5F0E652DE52DD50E55C02E1A7
:100AE000DF50E75CD8A0A7D00101E0C15AF10101B5
:100AF000E1C15BF101015A1F5B1F5A4B5B2B0101E6
:100B0000E25101015A270101E35101015B23010177
:100B10005A510101C55F01015B510101C65B8BD0D8
:100B2000010121EEC5F0010111EEE8F0E652DE52BE
:100B3000DD50E518DFCFE8FFD8B4E718D8B47BD094
:100B40000101DBA776D00101DBA971D0010121EE03
:100B5000E8F0DECF5AF1DDCF5BF101015A1F5B1FD8
:100B60005A4B5B2B0101C55101015A2501015C6FF4
:100B70000101C65101015B2101015D6F01015E6B45
:100B800001015DBF5E0701015E5101015F6F01015F
:100B90005C510101BD5F01015D510101BE5B0101BD
:100BA0005E510101BF5B01015F510101C05B0101A9
:100BB000E8510101C55D0101E9510101C659D8B0F3
:100BC00030D00101E0C15AF10101E1C15BF1010145
:100BD0005A1F5B1F5A4B5B2B0101E25101015A2541
:100BE00001015C6F0101E35101015B2101015D6FB6
:100BF00001015E6B01015DBF5E0701015E510101F4
:100C00005F6F01015C510101BD5F01015D51010197
:100C1000BE5B01015E510101BF5B01015F5101013A
:100C2000C05BE8C1C5F1E9C1C6F10101F885010168
:100C3000DB890101DB87010121EEE6F0010111EE04
:100C4000E8F0E652DE52DD50E518DFCFE8FFD8B419
:100C5000E718D8A440D00101F8B721D094ECDBF01C
:100C600000C15AF101C15BF102C15CF103C15DF148
:100C7000E60E01015A250101EE6FF50E01015B211F
:100C80000101EF6F050E01015C210101F06F000E03
:100C900001015D210101F16F0101F7991CD00101F2
:100CA00078510101C0190EE1010177510101BF190D
:100CB00009E1010176510101BE1904E101017551FB
:100CC0000101BD19D8A407D00101DBA104D00101A5
:100CD000F7990101F897010120EE0EF0010156513C
:100CE000D92601015751DA22DECF5AF1DDCF5BF16F
:100CF000010175C15CF1010176C15DF101015C1F6B
:100D00005D1F5C4B5D2B0101BD5101015C270101A1
:100D1000BE5101015D2301015C1F5D1F5C4B5D2B1A
:100D200001015A5101015C250101626F01015B5112
:100D300001015D210101636F0101CC51CB11D8A4E8
:100D400007D0010163516211D8B402D00101F883C8
:100D500062C1CBF163C1CCF10101F651080AD8A4FC
:100D60003CD0010178510101C0190EE10101775118
:100D70000101BF1909E1010176510101BE1904E128
:100D8000010175510101BD19D8A4A6D00101DBA153
:100D9000A3D094ECDBF000C15AF101C15BF102C1B8
:100DA0005CF103C15DF1F30E01015A250101EE6F03
:100DB000FA0E01015B210101EF6F020E01015C21BE
:100DC0000101F06F000E01015D210101F16F0101D0
:100DD000F789090E0101F66F7FD00101F651090A6A
:100DE000D8A414D0010179B177D075C1BDF176C115
:100DF000BEF177C1BFF178C1C0F1000E0101286FCB
:100E0000140EC1EC96F0F0ECCDF012000101F65199
:100E10000A0AD8A461D0010178510101C0190EE17C
:100E2000010177510101BF1909E101017651010169
:100E3000BE1904E1010175510101BD19D8A41200C8
:100E4000F0ECCDF01200010E0101BD2501015A6F39
:100E5000000E0101BE2101015B6F000E0101BF21E7
:100E600001015C6F000E0101C02101015D6F0101F4
:100E7000785101015D190EE10101775101015C1901
:100E800009E10101765101015B1904E1010175518C
:100E900001015A19D8A41200F0ECCDF012000101A2
:100EA000F651060AD8B4F5EF82F0010AD8B42CEF57
:100EB00083F00F0AD8B42CEF83F0010AD8B42CEFDA
:100EC00083F0030AD8B42CEF83F0010AD8B42CEFD6
:100ED00083F0070AD8B4B7D7010179BB120001012A
:100EE000F6510B0AD8B412000101F6510A0AD8B41F
:100EF00012000101F6510C0AD8B412000101595137
:100F00005811D8B4B2D301017D51800AF36E800E1E
:100F1000F35C010ED8B47C5DD8B078D101017CC1FE
:100F20005AF101017DC15BF101015A1F5B1F5A4B50
:100F30005B2B010120EE0CF001015651D926010175
:100F40005751DA220101DF380F0B01015C6F5D6B35
:100F50000101D8905C375D370101D8905C375D376F
:100F600001015A5101015C250101066F01015B512C
:100F700001015D210101076F88ECDCF001017C516A
:100F80000101582701017D510101592301015851E7
:100F90000101735D0101595101017459D8B004D0A8
:100FA00073C158F174C159F1010158510101C127B0
:100FB000010159510101C223000E0101C323000E9A
:100FC0000101C423010121EEEAF0DECF5AF1DDCFA9
:100FD0005BF10101585101015A27010159510101E9
:100FE0005B2301015A510101E45D01015B510101E3
:100FF000E559D8B079D0010121EEEAF0DECF5AF1FF
:10100000DDCF5BF101015A1F5B1F5A4B5B2B0101C6
:10101000E45101015A270101E55101015B23010E51
:1010200001015A2501017A6F000E01015B210101C6
:101030007B6FEAC11EF1EBC11FF1FBC120F1FF0E76
:101040000101226F01012169000E0101236F7AC1A4
:1010500024F17BC125F1D8ECC8F0E2C11EF1E3C157
:101060001FF1FBC120F1FF0E0101226F0101216977
:10107000000E0101236F01017AC15AF101017BC108
:101080005BF101015A1F5B1F5A4B5B2B0101585149
:1010900001015A250101246F0101595101015B2110
:1010A0000101256FD8ECC8F001017AC15AF10101A4
:1010B0007BC15BF101015A1F5B1F5A4B5B2B010186
:1010C000E25101015A270101E35101015B230101B2
:1010D000585101015A250101EA6F010159510101DD
:1010E0005B210101EB6F1CD0EAC11EF1EBC11FF1C6
:1010F000FBC120F1FF0E0101226F01012169000EE9
:101100000101236F58C124F159C125F1D8ECC8F071
:10111000010158510101EA27010159510101EB2355
:101120000101D929D8B4DA29D8B49FD20101585184
:101130000101D95F010159510101DA5B0101D95166
:101140000101CD2501017A6F0101DA510101CE21A2
:1011500001017B6F01017B51800AF36E800EF35C0D
:10116000000ED8B47A5DD8A04CD00101DA51800AC3
:10117000F36E800EF35C010ED8B4D95DD8B075D291
:1011800001017A510101C12701017B510101C223F3
:10119000000E0101C323000E0101C42301017A5195
:1011A0000101EA2701017B510101EB230101EA5111
:1011B0000101E45D0101EB510101E559D8B021D0F5
:1011C000010121EEE2F0DECF5AF1DDCF5BF101014A
:1011D0005A1F5B1F5A4B5B2B0101E45101015A2737
:1011E0000101E55101015B23010E01015A27000EA7
:1011F0005B2301015A510101EA5F01015B510101C9
:10120000EB5B0101D9690101DA692FD201017D513E
:10121000800A800F010ED8B47C5DD8A026D20101CF
:1012200058C15AF1010159C15BF101017C51010121
:101230005A2701017D5101015B2301015A5101012E
:10124000735D01015B5101017459D8B017D00101E0
:101250007CC15AF101017DC15BF101015A1F5B1F85
:101260005A4B5B2B0101735101015A250101586F43
:101270000101745101015B210101596F010120EE4F
:101280000CF001015651D92601015751DA22010112
:10129000DF380F0B01015A6F5B6B0101D8905A3791
:1012A0005B370101D8905A375B375AC106F15BC1F1
:1012B00007F188ECDCF0010121EEEAF0DECF5AF113
:1012C000DDCF5BF101017C5101015A2701017D5104
:1012D00001015B230101585101015A2701015951B4
:1012E00001015B2301015A510101E45D01015B51E0
:1012F0000101E559D8B0B0D0010121EEEAF0DECF0E
:101300005AF1DDCF5BF101017C5101015A27010146
:101310007D5101015B2301015A1F5B1F5A4B5B2B5F
:101320000101E45101015A270101E55101015B234B
:10133000010E01015A2501017A6F000E01015B21A6
:1013400001017B6F01017BBF44D001017C51010190
:10135000EA2501011E6F01017D510101EB2101010F
:101360001F6FFBC120F1FF0E0101226F01012169F6
:10137000000E0101236F7AC124F17BC125F1D8EC65
:10138000C8F0E2C11EF1E3C11FF1FBC120F1FF0E65
:101390000101226F01012169000E0101236F01018A
:1013A0007AC15AF101017BC15BF101015A1F5B1F38
:1013B0005A4B5B2B0101585101015A250101246F41
:1013C0000101595101015B210101256FD8ECC8F0E1
:1013D0005FD0010121EEE2F0DECF5AF1DDCF5BF10B
:1013E00001015A1F5B1F5A4B5B2B0101E4510101A4
:1013F0005A270101E55101015B23010E01015A2722
:10140000000E5B2301015A1F5B1F5A4B5B2B01012E
:10141000EA5101015A270101EB5101015B2301014E
:101420007C5101015A2501011E6F01017D5101010D
:101430005B2101011F6FFBC120F1FF0E0101226F33
:1014400001012169000E0101236F58C124F159C126
:1014500025F1D8ECC8F01CD001017C510101EA252E
:1014600001011E6F01017D510101EB2101011F6F7F
:10147000FBC120F1FF0E0101226F01012169000E65
:101480000101236F58C124F159C125F1D8ECC8F0EE
:101490000101D929D8B4DA29D8A409D07CC1D9F15D
:1014A0007DC1DAF158C1CDF159C1CEF1DED00101D3
:1014B000D95101017C5D0101DA5101017D59D8B09A
:1014C00068D001017CC15AF101017DC15BF10101CC
:1014D000585101015A270101595101015B230101B2
:1014E00021EED9F0DECF5CF1DDCF5DF10101CD5110
:1014F00001015C270101CE5101015D2301015A5117
:1015000001015C5D01015B5101015D59D8A018D05A
:1015100001017CC15AF101017DC15BF1010158510A
:1015200001015A270101595101015B230101D951E0
:1015300001015A5D0101DA5101015B59D8B005D0B2
:1015400058C1CDF159C1CEF11FD001017CC15AF172
:1015500001017DC15BF101015A1F5B1F5A4B5B2BDF
:101560000101D95101015A270101DA5101015B231F
:101570000101CD5101015A250101CD6F0101CE516B
:1015800001015B210101CE6F7CC1D9F17DC1DAF18E
:101590006CD001017CC15AF101017DC15BF10101F7
:1015A000585101015A270101595101015B230101E1
:1015B00021EED9F0DECF5CF1DDCF5DF10101CD513F
:1015C00001015C270101CE5101015D2301015A5146
:1015D00001015C5D01015B5101015D59D8B045D04D
:1015E000010121EED9F0DECF5AF1DDCF5BF101012F
:1015F000CD5101015A270101CE5101015B230101A7
:101600007C5101015A5D01017D5101015B59D8A056
:101610002CD0010121EED9F0DECF5AF1DDCF5BF104
:101620000101CD5101015A270101CE5101015B2376
:1016300001015A1F5B1F5A4B5B2B01017C510101B9
:101640005A2701017D5101015B230101585101011C
:101650005A270101595101015B2301015A5101012E
:10166000CD2701015B510101CE2301016A516911AE
:10167000D8B430D00101F651070AD8B404D0EAC179
:10168000ECF1EBC1EDF10101F7AF09D0010E010161
:10169000286F100EC1EC96F010ECCBF01BD00101BE
:1016A000F78F0101F7BD16D00101F78D81ECDBF05A
:1016B00000C15AF101C15BF102C15CF103C15DF1EE
:1016C0000F0E01015A250101F46F000E01015B218B
:1016D0000101F56F010179A11200010169510101B8
:1016E000652501015A6F01016A510101662101015D
:1016F0005B6F000E0101672101015C6F000E0101AB
:10170000682101015D6F010E0101C12501015E6FBC
:10171000000E0101C22101015F6F000E0101C32112
:101720000101606F000E0101C4210101616F01011F
:101730005D51010161190EE101015C510101601966
:1017400009E101015B5101015F1904E101015A51F5
:1017500001015E19D8A41200010E0101C127000E7B
:101760000101C2230101C3230101C4234DD00C0E8A
:101770000101F66F010E0101286F110EC1EC96F008
:1017800012000B0E0101F66F81ECDBF000C15AF183
:1017900001C15BF102C15CF103C15DF11E0E0101EB
:1017A0005A250101F46F000E01015B210101F56F63
:1017B00039D0010178510101C0190EE101017751C1
:1017C0000101BF1909E1010176510101BE1904E1CE
:1017D000010175510101BD19D8A409D0000E010104
:1017E000286F100EC1EC96F0F0ECCDF012000A0E4E
:1017F0000101F66F17D0000E0101286F100EC1EC29
:1018000096F0F0ECCDF012000101F651060AD8B4C2
:10181000AED7010AD8B4B5D70F0AD8B4CAD7010ACF
:10182000D8B4E9D7010E0101286F100EC1EC96F073
:101830001200000E0101656F01016551D8A49DEFF2
:1018400090F00101655130ECD0F0000E0101666F9F
:10185000000E0101646F000E0101636F0101F8B316
:1018600003D00101F8A50ED0BEECD7F00009D8B422
:1018700009D0100E0101666F000E0101F8B5010ECE
:101880000101646F0101F7AB25D081ECDBF000C1F1
:1018900057F101C158F102C159F103C15AF10101D7
:1018A000571F581F574B582B0101F2510101572761
:1018B0000101F3510101582301015851800AF36ECF
:1018C000800EF35C010ED8B4575DD8B003D0100E73
:1018D0000101666F0101F7AD25D081ECDBF000C19D
:1018E00057F101C158F102C159F103C15AF1010187
:1018F000571F581F574B582B0101F451010157270F
:101900000101F5510101582301015851800AF36E7C
:10191000800EF35C010ED8B4575DD8B003D0100E22
:101920000101666F0101F6510B0AD8A428D081ECA1
:10193000DBF000C157F101C158F102C159F103C1F7
:101940005AF10101571F581F574B582B0101F451F1
:10195000010157270101F551010158230101585197
:10196000800AF36E800EF35C010ED8B4575DD8B0D8
:1019700006D0110E0101666F0C0E0101F66F010118
:10198000F651040AD8A479D1000E0101686F000E47
:101990000101676F030E0101675D000E01016859C7
:1019A000D8B06BD167C10EF168C10FF1000E010113
:1019B000116F140E0101106F15ECDAF0100E010119
:1019C0000E27000E01010F230201000E01010E255A
:1019D000D96E0201020E01010F21DA6EDE50DD1018
:1019E000D8B44BD1010121EEF9F067C10EF168C105
:1019F0000FF1000E0101116F140E0101106F15ECB3
:101A0000DAF0100E01010E27000E01010F23020172
:101A1000000E01010E25E16E0201020E01010F21EF
:101A2000E26EE652DE52DD50E518DFCFE8FFD8B4B3
:101A3000E718D8A41ED110ECCBF00101010E010172
:101A4000156F0101CF0E0101146F67C10EF168C15E
:101A50000FF1000E0101116F140E0101106F15EC52
:101A6000DAF0000E0101576F020E586F01010E519E
:101A70000101572701010F510101582357C116F1E8
:101A800058C117F1000E0101196F0A0E0101186FFC
:101A9000CFECD5F067C10EF168C10FF1000E010166
:101AA000116F140E0101106F15ECDAF00A0E01012E
:101AB0000E27000E01010F230201000E01010E2569
:101AC000D96E0201020E01010F21DA6E0101DECF93
:101AD000C7F10101DDCFC8F167C10EF168C10FF197
:101AE000000E0101116F140E0101106F15ECDAF0F8
:101AF0000C0E01010E27000E01010F230201000E42
:101B000001010E25D96E0201020E01010F21DA6ECC
:101B1000DECF57F1DECF58F1DECF59F1DECF5AF1EB
:101B2000010E010157250101C16F000E010158216D
:101B30000101C26F000E010159210101C36F000EA6
:101B400001015A210101C46F010121EEC7F0DECF6E
:101B500057F1DDCF58F10101D151010157270101A2
:101B6000D251010158230101CF5101015727010131
:101B7000D051010158230101C95101015719010137
:101B8000F96F0101CA51010158190101FA6F120ED2
:101B90000101666F060E0101F66F67C10EF168C1A3
:101BA0000FF1000E0101116F140E0101106F15EC01
:101BB000DAF00201000E01010E2501011E6F020183
:101BC000020E01010F2101011F6F010E0101206FA3
:101BD000010E0101672501010E6F000E0101682150
:101BE00001010F6F000E0101116F140E0101106F42
:101BF00015ECDAF00201000E01010E250101216F42
:101C00000201020E01010F210101226F010E0101EB
:101C1000236F010E010167250101576F000E0101BD
:101C200068210101586F0101571F581F574B582B4E
:101C3000030E0101572501010E6F000E010158210D
:101C400001010F6F000E0101116F140E0101106FE1
:101C500015ECDAF001010EC124F101010FC125F1EB
:101C6000D8ECC8F0000E0201396F000E0201386F87
:101C700004D00101674B682B8DD601016651D8B4A1
:101C80000DD001016451D8A402D0010E01D0000E84
:101C90000101286F01016651C1EC96F00101F7B90D
:101CA0008ED00101F651070AD8A443D20101EEC13A
:101CB00057F10101EFC158F10101F0C159F10101E2
:101CC000F1C15AF10101571F581F591F5A1F572BB5
:101CD000000E582359235A2394ECDBF000C15BF12A
:101CE00001C15CF102C15DF103C15EF10101575117
:101CF00001015B2501015F6F0101585101015C2168
:101D00000101606F0101595101015D210101616F04
:101D100001015A5101015E210101626F010162510D
:101D2000800A800F08E1000E615D05E1000E605D34
:101D300002E1000E5F5DD8A0FCD10101F751070B55
:101D4000060AD8A415D0000E0101F7B7010E010153
:101D5000666F0101655168ECC6F00101655168ECE0
:101D6000C6F001016667E5D10E0E0101F66FE1D103
:101D700010ECCBF0020E0101286F100EC1EC96F0B2
:101D800094ECDBF000C157F101C158F102C159F1E7
:101D900003C15AF1E60E010157250101EE6FF50E60
:101DA000010158210101EF6F050E010159210101C7
:101DB000F06F000E01015A210101F16FBAD101014A
:101DC000EEC157F10101EFC158F10101F0C159F124
:101DD0000101F1C15AF10101571F581F591F5A1F24
:101DE000572B000E582359235A2394ECDBF000C1E3
:101DF0005BF101C15CF102C15DF103C15EF1010162
:101E0000575101015B2501015F6F0101585101012B
:101E10005C210101606F0101595101015D21010146
:101E2000616F01015A5101015E210101626F0101DF
:101E30006251800A800F08E1000E615D05E1000E2D
:101E4000605D02E1000E5F5DD8A073D110ECCBF0B5
:101E5000C3D081ECDBF000C157F101C158F102C1E0
:101E600059F103C15AF157C1F2F158C1F3F101011F
:101E7000010E0101216F0101CF0E0101206FE9EC7C
:101E8000C6F0030E57D00101010E0101016F0101DF
:101E9000CF0E0101006F0101010E0101036F01016D
:101EA000D30E0101026F42ECC3F00009D8A43BD06D
:101EB000010121EEF2F0DECF57F1DDCF58F1010143
:101EC000571F581F574B582B81ECDBF000C159F1BD
:101ED00001C15AF102C15BF103C15CF1010157512B
:101EE000010159270101585101015A23010159519A
:101EF0000101B95D01015A510101BA59D8B08CD024
:101F0000060E0101DE5DD8B00CD00101DE2B01010F
:101F1000D8900101B9370101BA370101BB3701017E
:101F2000BC37020E07D0020E0101666F000E0101E0
:101F3000646F050E0101F66F6FD0020E0101666F2E
:101F4000010E0101646F010121EEDEF0030EDF647A
:101F500063D0040E0101DE6F700E0101B96F890EAE
:101F60000101BA6F090E0101BB6F000E0101BC6FC8
:101F700053D0020E0101DE5DD8B002D0120E1FD088
:101F80000101F7B722D0020E0BD0050E0101DE5D74
:101F9000D8B002D0100E13D0080E0101F66F110E4A
:101FA0000101666F39D0050E0101DE5DD8B00DD09C
:101FB000F1D7050E0101DE5DD8B007D0110E010189
:101FC000666F010E0101646F27D0140E0101666F68
:101FD000010E0101636F20D00101F651020AD8B44D
:101FE00038D7010AD8B44FD7060AD8B4A6D7030AFF
:101FF000D8B4BFD7010AD8B4C8D70F0AD8B4D9D734
:10200000010AD8B4E2D7030AD8B4CDD7010AD8B4AC
:10201000BCD7070AD8B4CDD701016651D8B484D053
:1020200001016451D8B479D00101DE2B0101D890AF
:102030000101B9370101BA370101BB370101BC37D2
:10204000010121EEE8F0DECF57F1DDCF58F10101BB
:10205000571F581F574B582B0101C55101015725D8
:102060000101676F0101C651010158210101686F2B
:102070000101E8510101C55D0101E9510101C659A4
:10208000D8B01BD00101E0C157F10101E1C158F105
:102090000101571F581F574B582B0101E2510101F5
:1020A00057270101E3510101582301015751010153
:1020B000672701015851010168230101675101019E
:1020C000576F010168510101586F0101596B0101FE
:1020D0005A6B010157510101BD5F010158510101C6
:1020E000BE5B010159510101BF5B01015A51010160
:1020F000C05B010167510101CB270101685101015A
:10210000CC23E8C1C5F1E9C1C6F1000E0101286F79
:1021100001016651C1EC96F007D0010E0101286F54
:1021200001016651C1EC96F001016351D8A4F0ECB5
:10213000CDF00101652B1CEF8CF0000E0101686FE2
:10214000000E0101676F030E0101675D000E0101C2
:102150006859D8B0120067C10EF168C10FF1000EC6
:102160000101116F140E0101106F15ECDAF0100E61
:1021700001010E27000E01010F230201000E0101D3
:102180000E25D96E0201020E01010F21DA6EDE501A
:10219000DD10D8B4120067C10EF168C10FF1000E56
:1021A0000101116F140E0101106F15ECDAF0120E1F
:1021B00001010E27000E01010F230201000E010193
:1021C0000E25D96E0201020E01010F21DA6EDECF5B
:1021D00057F1DDCF58F10101571F581F574B582BAE
:1021E00081ECDBF000C159F101C15AF102C15BF190
:1021F00003C15CF1010157510101592701015851F7
:1022000001015A23CA0E0101595D010E5A59D8A085
:102210006FD067C10EF168C10FF1000E0101116F9F
:10222000140E0101106F15ECDAF00201000E01012D
:102230000E2501011E6F0201020E01010F21010195
:102240001F6F010E0101206F010E010167250101C1
:102250000E6F000E0101682101010F6F000E0101D8
:10226000116F140E0101106F15ECDAF00201000E6F
:1022700001010E250101216F0201020E01010F2152
:102280000101226F010E0101236F010E010167257B
:102290000101576F000E010168210101586F010112
:1022A000571F581F574B582B030E0101572501018B
:1022B0000E6F000E0101582101010F6F000E010188
:1022C000116F140E0101106F15ECDAF001010EC14F
:1022D00024F101010FC125F1D8ECC8F0000E020174
:1022E000396F000E0201386F01016707D8A0680737
:1022F0000101674B682B27D7000E0001726F000E9B
:102300000001716F000E0001686F4D0E0001676FD4
:10231000A6EF96F000018651250AD8B409D049C02D
:10232000D9FF4AC0DAFF000186C0DFFFA1EF96F0B7
:10233000000E00017E6F000E00017D6F000E000197
:102340007C6F000E00017B6F4BC0F6FF4CC0F7FFA7
:10235000000EF86E0800F55059ECDCF0D8A03AD029
:10236000000E00017E6F000E00017D6F7DC00FF03A
:102370007EC010F0000E126E0A0E116EBAECDBF089
:102380000FC07DF010C07EF0D00E506EFF0E516E6B
:102390004BC0F6FF4CC0F7FF000EF86E0800F5507A
:1023A000526E536A505052265150532252500001DF
:1023B0007D27535000017E234B4A4C2A4BC0F6FF29
:1023C0004CC0F7FF000EF86E0800F55059ECDCF039
:1023D000D8B0CCD74BC0F6FF4CC0F7FF000EF86E5C
:1023E0000800F5502E0AD8A437D000017C8D4B4A46
:1023F0004C2A000E0001856F000E0001846F1FD073
:1024000084C00FF085C010F0000E126E0A0E116E1F
:10241000BAECDBF04BC0F6FF4CC0F7FF000EF86ED5
:102420000800F5500F26000E1022D00E0F240001D8
:10243000846FFF0E10200001856F4B4A4C2A4BC061
:10244000F6FF4CC0F7FF000EF86E0800F55059EC8F
:10245000DCF0D8A00DD0D4D7000E0001856F000E9F
:102460000001846F00017C8903D000017C8517D0B6
:102470004BC0F6FF4CC0F7FF4B4A4C2A000EF86EDB
:1024800008000001F5CF86F000018651000AD8B49B
:10249000B6EF96F0660AD8B4E8D7A6EF96F0070E26
:1024A00000017C15D8B494D300017CA906D0000E9D
:1024B0000001856F060E0001846F67C0D9FF68C0F8
:1024C000DAFF0001DECF81F00001DECF82F00001F3
:1024D000DDCF83F0030E00016727000E00016823A3
:1024E00000018351800A800F07E1000E0001825D28
:1024F00003E1000E0001815DD8B011D081C001F070
:1025000082C002F083C003F0CDECDBF001C081F0AB
:1025100002C082F003C083F0030E00017B13000EA3
:102520000001806F000E00017F6F7F0E0001831598
:102530000001821100018111D8B497D0820E506E33
:10254000FF0E516E000181C052F0000182C053F0B5
:10255000000183C054F0000184C055F0100E05D076
:10256000D8905532543253325232E82EF9D7525065
:10257000502400017F6F000E51200001806F000188
:102580007F07D8A080077FC00FF080C010F0000E3A
:10259000126E030E116EBAECDBF00FC07FF010C0AC
:1025A00080F07FC007F080C008F0000E0A6E0A0EAF
:1025B000096E7CECD1F007C07FF008C080F000010C
:1025C0008051800AF36E800EF35C000ED8B47F5DFC
:1025D000D8B004D000017F07D8A0800700017F5148
:1025E0000008BCECFDF024C073F025C074F026C0D8
:1025F00075F073C015F074C016F075C017F081C087
:1026000018F082C019F083C01AF060ECC8F015C051
:1026100073F016C074F017C075F073C001F074C089
:1026200002F075C003F0000E046E800E056E3F0EC2
:10263000066E49ECD3F0D8B005D000017F07D8A0D2
:10264000800713D073C001F074C002F075C003F0AE
:10265000000E046E200E056E410E066E49ECD3F09E
:10266000D8A003D000017F4B802B00018551800A48
:10267000F36E800EF35C0D0ED8B4845DD8B018D024
:1026800081C02EF082C02FF083C030F00001845151
:10269000B5ECA7F024C031F025C032F026C033F0ED
:1026A0000EECB6F02EC081F02FC082F030C083F067
:1026B00000018051800AF36E800EF35C0A0ED8B4DC
:1026C0007F5DD8B028D07F0E0001831500018211F4
:1026D00000018111D8B46BD081C03AF082C03BF0C8
:1026E00083C03CF0E5ECC7F03AC050F03BC051F07D
:1026F0003CC052F03DC053F0535050105110521096
:10270000D8A455D000018051800A800F020ED8B4A1
:102710007F5DD8A04CD073C001F074C002F075C0CA
:1027200003F0700E046E890E056E400E066E49ECC5
:10273000D3F0D8B003D00001F70E02D00001F80E9C
:1027400000017F27FF0E0001802300017F51BCECB8
:10275000FDF024C073F025C074F026C075F081C070
:1027600001F082C002F083C003F073C004F074C0B3
:1027700005F075C006F05FECC0F001C063F002C068
:1027800064F003C065F004C066F063C076F064C016
:1027900077F065C078F066C079F0000E0001816FB7
:1027A000000E0001826F000E0001836F34D081C0E3
:1027B0003AF082C03BF083C03CF0E5ECC7F03AC091
:1027C00076F03BC077F03CC078F03DC079F081C036
:1027D0003AF082C03BF083C03CF076C009F077C08D
:1027E0000AF078C00BF079C00CF063ECD7F009C0A8
:1027F0003DF00AC03EF00BC03FF030ECDAF03AC0DA
:1028000081F03BC082F03CC083F0000E0001806F7D
:10281000000E00017F6F010E0001866F00018651DE
:102820000A0AD8B421D000018651040D8B0EF3247E
:10283000F66EFE0EF420F76EF86A000EF82209001C
:10284000F5500001765D0900F55000017759090047
:10285000F550000178590900F55000017959D8A0C8
:1028600003D00001862BDAD7000186C050F0516AF0
:1028700050BE51060001845150260001855151225D
:1028800000017F515026000180515122505000011B
:102890007D5F515000017E5B000185518411D8B4E9
:1028A00004D000017D07D8A07E07030E00017B1530
:1028B000506E000E00017C15516E51505010D8B46E
:1028C00010D00BD049C0D9FF4AC0DAFF200EDF6E0E
:1028D000494A4A2A0001714B722B00017D07D8A09A
:1028E0007E0700017E51800AF36E800EF35C010EBC
:1028F000D8B47D5DD8B0E6D7030E00017B15506ECD
:10290000000E00017C15516E51505010D8B457D0B4
:1029100049C0D9FF4AC0DAFF2D0E4BD076C001F076
:1029200077C002F078C003F079C004F0000186514E
:10293000040D8B0EF324F66EFE0EF420F76EF86A8B
:10294000000EF8220900F5CF05F00900F5CF06F0DA
:102950000900F5CF07F00A00F5CF08F0A0ECD4F09D
:1029600001C069F002C06AF003C06BF004C06CF0F3
:1029700069C001F06AC002F06BC003F06CC004F0E3
:102980000A0E056E000E066E000E076E000E086E33
:10299000A2ECD6F001C069F002C06AF003C06BF08F
:1029A00004C06CF000016951300F49C0D9FF4AC022
:1029B000DAFFDF6E494A4A2A0001714B722B00018F
:1029C000860700018629D8B410D0A8D749C0D9FFFE
:1029D0004AC0DAFF300EDF6E494A4A2A0001714BC5
:1029E000722B00017F07D8A0800700018051800A68
:1029F000F36E800EF35C010ED8B47F5DD8B0E6D7DD
:102A000000018551800A800F090ED8B4845DD8A0DA
:102A100004D0080E0001866F02D084C086F0000149
:102A200086510001845F000E000186BFFF0E000189
:102A3000855B00018651D8B40BD049C0D9FF4AC08C
:102A4000DAFF2E0EDF6E494A4A2A0001714B722BC3
:102A500000018651BCECFDF024C060F025C061F09F
:102A600026C062F081C018F082C019F083C01AF04D
:102A700060C015F061C016F062C017F060ECC8F0DD
:102A800015C03AF016C03BF017C03CF0E5ECC7F0BB
:102A90003AC076F03BC077F03CC078F03DC079F0AA
:102AA0007BD076C001F077C002F078C003F079C027
:102AB00004F000018651040D8B0EF324F66EFE0E19
:102AC000F420F76EF86A000EF8220900F5CF05F041
:102AD0000900F5CF06F00900F5CF07F00A00F5CFA1
:102AE00008F0A0ECD4F001C06DF002C06EF003C09D
:102AF0006FF004C070F06DC001F06EC002F06FC0E6
:102B000003F070C004F00A0E056E000E066E000E93
:102B1000076E000E086EA2ECD6F001C06DF002C088
:102B20006EF003C06FF004C070F000016D51300F03
:102B300049C0D9FF4AC0DAFFDF6E494A4A2A00017C
:102B4000714B722B76C001F077C002F078C003F0B1
:102B500079C004F000018651040D8B0EF324F66E4B
:102B6000FE0EF420F76EF86A000EF8220900F5CF89
:102B700005F00900F5CF06F00900F5CF07F00A00CF
:102B8000F5CF08F0A2ECD6F001C076F002C077F0E5
:102B900003C078F004C079F000018607000186299F
:102BA000D8B410D07ED749C0D9FF4AC0DAFF300E62
:102BB000DF6E494A4A2A0001714B722B00018407DB
:102BC000D8A08507000185518411D8B4BFD0EBD7B8
:102BD000000185518411D8A40AD0000179517611E1
:102BE00077117811D8A403D00001844B852B800E77
:102BF000000186BF7F0E506E000184510001865D8A
:102C000000018551800A5058D8B003D084C086F0A6
:102C100018D000018551800A506E000186510001D4
:102C2000845D800E000186BF7F0E5058D8B009D059
:102C3000000186510001846F0001856B000184BF93
:102C4000850700017E517D11D8B410D0030E00011C
:102C50007B15506E000E00017C15516E51505010C6
:102C6000D8B404D000017D07D8A07E0700017CAD58
:102C70001DD000018551800A506E00017D51000178
:102C8000845D00017E51800A5058D8B009D00001FF
:102C9000845100017D5F0001855100017E5B06D0FB
:102CA000000E00017E6F000E00017D6F800E00019E
:102CB00086BF7F0E506E00017D510001865D0001D0
:102CC0007E51800A5058D8B00BD0000186510001C7
:102CD0007D5F000E000186BFFF0E00017E5B06D007
:102CE000000E00017E6F000E00017D6F00017E511D
:102CF0007D11D8B414D049C0D9FF4AC0DAFF200EE4
:102D0000DF6E494A4A2A0001714B722B00017D0790
:102D1000D8A07E0700017E517D11D8A4ECD7030E08
:102D200000017B15506E000E00017C15516E515054
:102D30005010D8B40BD049C0D9FF4AC0DAFF2D0ECD
:102D4000DF6E494A4A2A0001714B722B4BC0F6FFD5
:102D50004CC0F7FF4B4A4C2A000EF86E08000001E9
:102D6000F5CF86F0000186678AEF91F049C0D9FF60
:102D70004AC0DAFF000EDF6E71C049F072C04AF03F
:102D800012000101336F10ECCBF0010133A104D02C
:102D90000101F887010133910101F79B0101F79DC2
:102DA0000101F79F0101F8930101F8950101F891E4
:102DB000BEECD7F00009D8B4FBD733C129F1060E19
:102DC00001012917D8B407D0000E0101356F000E9C
:102DD0000101346F8CD1010121EEC5F0010111EE2A
:102DE000E6F0E652DE52DD50E518DFCFE8FFD8B45A
:102DF000E718D8A407D0000E0101356F000E0101BD
:102E0000346F52D10101E6510101C55D0101E75165
:102E10000101C659D8B054D0010121EEC5F0DECF72
:102E200029F1DDCF2AF10101291F2A1F294B2A2B65
:102E30000101E651010129250101346F0101E7512A
:102E400001012A210101356F010134510101CB5DDE
:102E5000010135510101CC59D8B004D0CBC134F1B6
:102E6000CCC135F1010134510101DC5D0101355165
:102E70000101DD59D8B006D0DCC134F1DDC135F136
:102E80000101F885120E01011F6FDD0E01011E6F99
:102E9000000E0101206FC5C121F1C6C122F1FBC1A5
:102EA00023F134C124F135C125F1D8ECC8F001017A
:102EB00034510101C527010135510101C623F4D068
:102EC000010121EEC5F0DECF29F1DDCF2AF10101AC
:102ED000291F2A1F294B2A2B0101E2510101292513
:102EE0000101406F0101E35101012A210101416FFC
:102EF0000101E0C129F10101E1C12AF10101291F0C
:102F00002A1F294B2A2B01014051010129270101C8
:102F1000415101012A230101E65101012925010145
:102F2000346F0101E75101012A210101356F0101CF
:102F300034510101CB5D010135510101CC59D8B0AB
:102F400004D0CBC134F1CCC135F1010134510101C0
:102F5000DC5D010135510101DD59D8B006D0DCC17D
:102F600034F1DDC135F10101F88501014051010164
:102F7000345D0101415101013559D8B004D034C14B
:102F800040F135C141F1120E01011F6FDD0E01014B
:102F90001E6F000E0101206FC5C121F1C6C122F1D3
:102FA000FBC123F140C124F141C125F1D8ECC8F0A7
:102FB000010121EE40F0DECF29F1DDCF2AF1010140
:102FC000291F2A1F294B2A2B0101345101012925D0
:102FD0000101406F0101355101012A210101416FB9
:102FE000010141514011D8B42DD0010121EEC5F0AD
:102FF000DECF29F1DDCF2AF10101291F2A1F294B3C
:103000002A2B0101E251010129270101E3510101AC
:103010002A23DD0E0101292501011E6F120E010177
:103020002A2101011F6F000E0101206FE0C121F173
:10303000E1C122F1FBC123F140C124F141C125F1DD
:10304000D8ECC8F0010134510101C5270101355107
:103050000101C623010121EEE2F0010111EEC5F0EC
:10306000E652DE52DD50E55C02E1DF50E75CD8A0BD
:103070001BD00101E0C129F10101E1C12AF10101E7
:10308000291F2A1F294B2A2B0101E251010129275F
:103090000101E35101012A23010129510101C55F09
:1030A00001012A510101C65B0101F8A720D00101ED
:1030B00021EECBF00101DE5201013551DD18010195
:1030C00034C1E8FFD8B4DF18D8B411D0010121EE23
:1030D000DCF00101DE5201013551DD18010134C17E
:1030E000E8FFD8B4DF18D8B402D001013381010160
:1030F00035513411D8A407D033C129F1030E010191
:103100002917D8B446D0010134510101CB5F010128
:1031100035510101CC5B010135513411D8B402D0D5
:1031200001013387010128A10FD0000E0101DE6FDC
:10313000970E0101B96F980E0101BA6F000E0101DF
:10314000BB6F000E0101BC6F94ECDBF000C129F1F4
:1031500001C12AF102C12BF103C12CF10101B951C6
:10316000010129250101EE6F0101BA5101012A2156
:103170000101EF6F0101BB5101012B210101F06F32
:103180000101BC5101012C210101F16F0101F789FD
:1031900060D0010128A325D0010E0101296F010192
:1031A000F751070B01012A6F0101295101012A275B
:1031B0000101F75101012A19F80B01012A19010136
:1031C000F76F0101BD07000E0101BE5B0101BF5B8E
:1031D0000101C05B000E0101356F010E0101346F6A
:1031E00038D00101F7A935D0010128B110D0010173
:1031F000DE51D8B40CD00101DE070101D8900101E5
:10320000BC330101BB330101BA330101B93394EC82
:10321000DBF000C129F101C12AF102C12BF103C188
:103220002CF10101B951010129250101EE6F0101C4
:10323000BA5101012A210101EF6F0101BB510101C6
:103240002B210101F06F0101BC5101012C21010171
:10325000F16FC9C142F1CAC143F1C7C144F1C8C14C
:1032600045F1BDC146F1BEC147F1BFC148F1C0C182
:1032700049F1C1C14AF1C2C14BF1C3C14CF1C4C152
:103280004DF13F0E01014F1701014E9101014E9387
:1032900001014E9501014E9733C14FF1000E01011E
:1032A000556F000E0101546F010134510101BD271A
:1032B000010135510101BE23000E0101BF23000EA3
:1032C0000101C023010133A328D0010133B90CD07F
:1032D000000E01014A6F000E01014B6F000E01014B
:1032E0004C6F000E01014D6F0101DBA30AD00101FB
:1032F0004607000E0101475B0101485B0101495B84
:103300000CD0010E0101BD27000E0101BE230101F9
:10331000BF230101C0230101DB83010133A102D0DE
:103320000101DB81010121EEECF0010111EEEAF077
:10333000E652DE52DD50E55C02E1DF50E75CD8A0EA
:103340002AD0010121EEECF0DECF29F1DDCF2AF108
:103350000101291F2A1F294B2A2B0101EA510101D2
:1033600029270101EB5101012A230101E251010149
:1033700029270101E35101012A230101291F2A1FE5
:10338000294B2A2B0101E451010129250101506F2C
:103390000101E5511AD0010121EEEAF0DECF29F159
:1033A000DDCF2AF10101291F2A1F294B2A2B0101F8
:1033B000EC51010129270101ED5101012A23FF0EE2
:1033C000010129250101506FFF0E01012A21010190
:1033D000516FA4ECCAF0010100C131F1010101C13A
:1033E00032F1400E0101315D000E01013259D8B0B9
:1033F00007D0000E0101326F000E0101316F06D0BF
:10340000400E0101315F000E0101325B010150519C
:103410000101315D0101515101013259D8B004D08F
:1034200031C150F132C151F10101010E0101066FAC
:103430000101420E0101056F85ECB0F0140E01018F
:103440003427000E0101352301014E510F0B5009A5
:1034500001014E6F010133A329D0040E010134276D
:10346000000E01013523020E01012D6F040E010132
:103470002E6F180E0101306F020E01012F6F010E29
:103480000101296F01014E390F0B01012A6F010162
:10349000295101012A2701012A3B01014E51010155
:1034A0002A190F0B01012A1901014E6F3CC236F196
:1034B0003DC237F13EC238F13FC239F1CFC13AF1D6
:1034C000D0C13BF1D1C13CF1D2C13DF1000E0101AF
:1034D0003E6F060E01013F6F34C140F135C141F12D
:1034E00040C100F141C101F179ECDCF0010100C102
:1034F00040F1010101C141F10101010E0101016F22
:103500000101360E0101006F000E0101036F0C0E68
:103510000101026F6AECC7F00101001D0101526F49
:103520000101011D0101536F120E0101016FB50E62
:103530000101006F40ECDDF00101010E01010F6F90
:103540000101CF0E01010E6F060E0101106F34C193
:1035500011F135C112F1B5ECC2F00101010E01010A
:10356000016F0101420E0101006F000E0101036FA6
:10357000140E0101026FE4ECFFF0010133A310D03F
:103580000101010E0101016F01012D0E0101006F0A
:10359000000E0101036F040E0101026FE4ECFFF065
:1035A000120E0101016FC90E0101006F49ECDDF03F
:1035B00034C106F135C107F174ECBEF0010106C15A
:1035C00031F1010107C132F1120E0101016FD90E73
:1035D0000101006F40ECDDF00101010E0101016FFE
:1035E0000101310E0101006F000E0101036F020E97
:1035F0000101026FE4ECFFF0DDECD9F012000101F3
:1036000020EE02F001012851D92601012951DA22C8
:10361000DE50DD10D8A402D0000E1200FE0E010113
:10362000366F010120EE02F001012851D926010177
:103630002951DA22DECF2CF1DDCF2DF12AC1D9FFBD
:103640002BC1DAFFDECF2EF1DDCF2FF1010120EE0D
:1036500002F001012A51D92601012B51DA22DECFD5
:1036600030F1DDCF31F128C1D9FF29C1DAFFDECF3A
:1036700032F1DDCF33F10101305101013227010177
:1036800031510101332301012E5101013227010182
:103690002F510101332301012C5101013219010184
:1036A000346F01012D51010133190101356F000EF5
:1036B0000101376F01013751D8A485D0010137517D
:1036C00030ECD0F00101F6510D0AD8B479D00101E7
:1036D000F651040AD8A419D0010120EE02F001012C
:1036E0002851D92601012951DA22010111EEF9F000
:1036F000E652DE52DD50E518DFCFE8FFD8B4E71818
:10370000D8A45ED037C136F15BD0010121EEF9F0CB
:103710000101DE5201013551DD18010134C1E8FF1C
:10372000D8B4DF18D8A44CD010ECCBF0010121EEB6
:10373000C9F0010110EE02F001012851E12601015A
:103740002951E222E652DE52DD50E518DFCFE8FFD4
:10375000D8B4E718D8A434D0010121EEC7F028C1AD
:10376000E1FF29C1E2FFE652DE52DD50E518DFCF6E
:10377000E8FFD8B4E718D8A423D02AC1D9FF2BC1B9
:10378000DAFFDECF2CF1DECF2DF1DECF2EF1DECF52
:103790002FF10101D25101012F190EE10101D15187
:1037A00001012E1909E10101D05101012D1904E196
:1037B0000101CF5101012C19D8A402D0010E120031
:1037C0000101372B77D701013651FE0AD8B444D016
:1037D0000101365130ECD0F010ECCBF00101365144
:1037E000FE0AD8B439D034C1F9F135C1FAF101017A
:1037F000010E0101156F0101CF0E0101146F0101CE
:103800002BC117F101012AC116F1000E0101196F38
:103810000A0E0101186FCFECD5F028C1D9FF29C1DC
:10382000DAFF0101DECFC7F10101DDCFC8F10101EF
:1038300020EE02F001012851D92601012951DA2296
:103840000101DECFC9F10101DDCFCAF1E0C1C5F14F
:10385000E1C1C6F1010E1200010120EE0DF00101DF
:103860002851D92601012951DA22DFB202D0000EF7
:103870001200020139513811D8B402D0000E1200E2
:10388000000E0101396F000E0101386F030E0101B6
:10389000385D000E01013959D8B0E8D038C10EF1B9
:1038A00039C10FF1000E0101116F140E0101106FEB
:1038B00015ECDAF0100E01010E27000E01010F23A6
:1038C0000201000E01010E25D96E0201020E010156
:1038D0000F21DA6EDE50DD10D8B4C8D0010120EE21
:1038E00002F001012851D92601012951DA2238C1FB
:1038F0000EF139C10FF1000E0101116F140E01011B
:10390000106F15ECDAF0100E01010E27000E010108
:103910000F230201000E01010E25E16E0201020ECD
:1039200001010F21E26EE652DE52DD50E518DFCFD5
:10393000E8FFD8B4E718D8A495D028C1D9FF29C189
:10394000DAFF38C10EF139C10FF1000E0101116F1C
:10395000140E0101106F15ECDAF00A0E01010E27AA
:10396000000E01010F230201000E01010E25E16E80
:103970000201020E01010F21E26EE652DE52DD501D
:10398000E518DFCFE8FFD8B4E718D8A46BD02AC178
:10399000D9FF2BC1DAFFDECF2CF1DECF2DF1DECF48
:1039A0002EF1DECF2FF138C10EF139C10FF1000E2B
:1039B0000101116F140E0101106F15ECDAF0020114
:1039C000000E01010E25D96E0201020E01010F2128
:1039D000DA6EDECF30F1DECF31F1DECF32F1DECF85
:1039E00033F101012F51010133190EE101012E5173
:1039F0000101321909E101012D510101311904E1DF
:103A000001012C5101013019D8A42CD081ECDBF03C
:103A100000C12CF101C12DF102C12EF103C12FF122
:103A200038C10EF139C10FF1000E0101116F140EF2
:103A30000101106F15ECDAF0120E01010E27000ED5
:103A400001010F230201000E01010E25D96E0201B2
:103A5000020E01010F21DA6E2CC1DEFF2DC1DDFF48
:103A6000000E12000101384B392B10D7000E010156
:103A7000376F01013751D8A4F0D00101375130EC34
:103A8000D0F00101F7A7E6D010ECCBF0010120EE59
:103A900002F001012851D92601012951DA22010140
:103AA00011EEC9F0E652DE52DD50E518DFCFE8FF37
:103AB000D8B4E718D8A4CED038C10EF139C10FF16F
:103AC000000E0101116F140E0101106F15ECDAF0F8
:103AD0000201000E01010E250101146F0201020E08
:103AE00001010F210101156F01012BC117F1010126
:103AF0002AC116F1000E0101196F0A0E0101186F9B
:103B0000CFECD5F028C1D9FF29C1DAFF38C10EF1B9
:103B100039C10FF1000E0101116F140E0101106F78
:103B200015ECDAF00A0E01010E27000E01010F2339
:103B30000201000E01010E25E16E0201020E0101DB
:103B40000F21E26EDECFE6FFDDCFE5FF010120EEC3
:103B500004F001012851D92601012951DA2238C186
:103B60000EF139C10FF1000E0101116F140E0101A8
:103B7000106F15ECDAF00C0E01010E27000E01019A
:103B80000F230201000E01010E25E16E0201020E5B
:103B900001010F21E26EDECFE6FFDECFE6FFDECFD2
:103BA000E6FFDDCFE5FFE552E552010120EE02F030
:103BB00001012851D92601012951DA2238C10EF11B
:103BC00039C10FF1000E0101116F140E0101106FC8
:103BD00015ECDAF0100E01010E27000E01010F2383
:103BE0000201000E01010E25E16E0201020E01012B
:103BF0000F21E26EDECFE6FFDDCFE5FF81ECDBF0EB
:103C000000C12CF101C12DF102C12EF103C12FF130
:103C100038C10EF139C10FF1000E0101116F140E00
:103C20000101106F15ECDAF0120E01010E27000EE3
:103C300001010F230201000E01010E25D96E0201C0
:103C4000020E01010F21DA6E2CC1DEFF2DC1DDFF56
:103C5000000E12000101372B0CD7000E12000101DB
:103C6000296F010129AF6FD10101296D010129518E
:103C7000800A120FD8A0CFD0000E0101116F030EE1
:103C80000101106F000E0101096F0A0E0101086F9A
:103C9000000E0101036F640E0101026F0101295141
:103CA0000101006F0101016B010100BF0107B9ECC7
:103CB000CEF0010100C106F1010101C107F1C2EC22
:103CC000C9F0090E0101062501010E6F000E010168
:103CD000072101010F6F15ECDAF0B30E01010E257B
:103CE000F66EFE0E01010F21F76EF86A000EF82243
:103CF00009000101F5CF17F109000101F5CF18F115
:103D00000A000101F5CF19F1000E0101096F640EDF
:103D10000101086F010129510101066F0101076BC3
:103D2000010106BF0707C2ECC9F0120E010106250A
:103D300001010E6F000E0101072101010F6F000E3E
:103D40000101116F030E0101106F15ECDAF0B30ED3
:103D500001010E25F66EFE0E01010F21F76EF86AC5
:103D6000000EF82209000101F5CF14F1090001014C
:103D7000F5CF15F10A000101F5CF16F1A2ECBBF069
:103D800014C126F115C127F116C128F126C114F17D
:103D900027C115F128C116F1000E0101116F030EA4
:103DA0000101106F000E0101036F0A0E0101026F85
:103DB000010129510101006F0101016B010100BFE7
:103DC0000107B9ECCEF0010100C10EF1010101C102
:103DD0000FF115ECDAF0B30E01010E25F66EFE0EB2
:103DE00001010F21F76EF86A000EF82209000101A7
:103DF000F5CF17F109000101F5CF18F10A00010113
:103E0000F5CF19F1A2ECBBF014C123F115C124F1D7
:103E100016C125F1120001012951800A750FD8A0A1
:103E200079D0000E0101096F0A0E0101086F01012E
:103E300029510101066F0101076B010106BF070748
:103E4000C2ECC9F0090E0101062501010E6F000E3A
:103E50000101072101010F6F000E0101116F030E17
:103E60000101106F15ECDAF0B30E01010E25F66EAC
:103E7000FE0E01010F21F76EF86A000EF82209000C
:103E80000101F5CF14F109000101F5CF15F10A0088
:103E90000101F5CF16F1000E0101116F030E0101B2
:103EA000106F000E0101036F0A0E0101026F010184
:103EB00029510101006F0101016B010100BF0107E0
:103EC000B9ECCEF0010100C10EF1010101C10FF109
:103ED00015ECDAF0B30E01010E25F66EFE0E0101AF
:103EE0000F21F76EF86A000EF82209000101F5CFE4
:103EF00017F109000101F5CF18F10A000101F5CF12
:103F000019F1A2ECBBF014C123F115C124F116C1C3
:103F100025F1120001012951030DB30EF324F66EB1
:103F2000FE0EF420F76EF86A000EF8220900010177
:103F3000F5CF23F109000101F5CF24F10A000101B9
:103F4000F5CF25F1120001012951800A120FD8A0E6
:103F5000CFD0000E0101116F030E0101106F000E92
:103F60000101096F0A0E0101086F000E0101036FC4
:103F7000640E0101026F010129510101006F01016D
:103F8000016B010100BF0107B9ECCEF0010100C1D6
:103F900006F1010101C107F1C2ECC9F0090E0101EE
:103FA000062501010E6F000E0101072101010F6FAF
:103FB00015ECDAF0DA0E01010E25F66EFE0E0101A7
:103FC0000F21F76EF86A000EF82209000101F5CF03
:103FD00017F109000101F5CF18F10A000101F5CF31
:103FE00019F1000E0101096F640E0101086F010152
:103FF00029510101066F0101076B010106BF070787
:10400000C2ECC9F0120E0101062501010E6F000E6F
:104010000101072101010F6F000E0101116F030E55
:104020000101106F15ECDAF0DA0E01010E25F66EC3
:10403000FE0E01010F21F76EF86A000EF82209004A
:104040000101F5CF14F109000101F5CF15F10A00C6
:104050000101F5CF16F1A2ECBBF014C126F115C198
:1040600027F116C128F126C114F127C115F128C185
:1040700016F1000E0101116F030E0101106F000E09
:104080000101036F0A0E0101026F010129510101B3
:10409000006F0101016B010100BF0107B9ECCEF017
:1040A000010100C10EF1010101C10FF115ECDAF0BF
:1040B000DA0E01010E25F66EFE0E01010F21F76EDC
:1040C000F86A000EF82209000101F5CF17F1090086
:1040D0000101F5CF18F10A000101F5CF19F1A2ECA9
:1040E000BBF014C123F115C124F116C125F1120052
:1040F00001012951800A750FD8A079D0000E010165
:10410000096F0A0E0101086F010129510101066FB3
:104110000101076B010106BF0707C2ECC9F0090ED8
:104120000101062501010E6F000E010107210101A9
:104130000F6F000E0101116F030E0101106F15ECDE
:10414000DAF0DA0E01010E25F66EFE0E01010F21E6
:10415000F76EF86A000EF82209000101F5CF14F19C
:1041600009000101F5CF15F10A000101F5CF16F1A3
:10417000000E0101116F030E0101106F000E01010D
:10418000036F0A0E0101026F010129510101006F45
:104190000101016B010100BF0107B9ECCEF0010183
:1041A00000C10EF1010101C10FF115ECDAF0DA0ED8
:1041B00001010E25F66EFE0E01010F21F76EF86A61
:1041C000000EF82209000101F5CF17F109000101E5
:1041D000F5CF18F10A000101F5CF19F1A2ECBBF0FF
:1041E00014C123F115C124F116C125F112000101FA
:1041F0002951030DDA0EF324F66EFE0EF420F76E4D
:10420000F86A000EF82209000101F5CF23F1090038
:104210000101F5CF24F10A000101F5CF25F11200CB
:1042200065D2000E0101566F000E0101576F000E9E
:104230000101586F000E0101596F000E01015A6F04
:10424000000E01015C6F590E01015B6F010E01014F
:104250005D6F89ECAFF00101B46F0101B451FE0A4A
:10426000D8B41200010E0001ED6F12000101B4512B
:1042700057ECDBF00009D8B412000101B45123EC73
:10428000CDF0010121C182F1010122C183F10101BF
:10429000B451DBECC4F0010121C184F1010122C160
:1042A00085F10101010E0101016F0101870E01017C
:1042B000006F000E0101036F000E0101026F000E7E
:1042C0000101056F120E0101046FF9ECD9F0010133
:1042D000010E0101276F0101870E0101266F000EFB
:1042E0000101296F120E0101286F0101B4515FEC29
:1042F000B3F00101010E0101016F0101870E0101FF
:10430000006F110E0101026F60ECD9F00101866FA0
:104310000101985101018619D8B49AD10101010E09
:104320000101016F0101870E0101006F000E010103
:10433000036F000E0101026F000E0101056F120EE6
:104340000101046FF9ECD9F001018769000E7DD1FC
:104350000101010E0101016F0101870E0101006FD2
:10436000000E0101036F000E0101026F000E01013A
:10437000056F120E0101046FF9ECD9F0010E010175
:10438000876FD5C288F1D4C289F1000E8CB0010EBE
:1043900001018A6F7ED188C1D5F2F29E7CECCFF00C
:1043A000F28E0101010E0101016F0101870E010171
:1043B000006F000E0101036F000E0101026F000E7D
:1043C0000101056F120E0101046FF9ECD9F061D102
:1043D000020E0101876F0101010E0101156F01013C
:1043E000880E0101146F0201020E0101176F020114
:1043F000D60E0101166F000E0101196F100E01019A
:10440000186FCFECD5F045D10201020E0101156FF6
:104410000201D60E0101146F0101010E0101176F97
:104420000101880E0101166F000E0101196F100EB7
:104430000101186FCFECD5F0F29ED7ECDCF0F28ED4
:104440000101010E0101016F0101870E0101006FE1
:10445000000E0101036F000E0101026F000E010149
:10446000056F120E0101046FF9ECD9F012D10101B0
:10447000010E0101016F0101870E0101006F000EA5
:104480000101036F000E0101026F000E0101056FB3
:10449000120E0101046FF9ECD9F0010E0101876FD2
:1044A000D4C288F1F6D088C1D4F2F29ED8ECD0F014
:1044B000F28E0101010E0101016F0101870E010160
:1044C000006F000E0101036F000E0101026F000E6C
:1044D0000101056F120E0101046FF9ECD9F0D9D07A
:1044E000F29E18ECA5F0F28E0101010E0101016FA0
:1044F0000101870E0101006F000E0101036F000E24
:104500000101026F000E0101056F120E0101046F1F
:10451000F9ECD9F0BED001018851D8B403D044ECF5
:10452000D8F002D07FECDDF00101010E0101016F36
:104530000101870E0101006F000E0101036F000EE3
:104540000101026F000E0101056F120E0101046FDF
:10455000F9ECD9F09ED00101B869100E0101885D17
:10456000D8B035D00101010E0101156F0101880E8F
:104570000101146F0201020E0101176F0201AD0E5D
:104580000101166F000E0101196F100E0101186F65
:10459000CFECD5F00201020E0101016F0201AD0E58
:1045A0000101006F000E0101036F000E0101026F97
:1045B000000E0101056F100E0101046FF9ECD9F036
:1045C000010E0101FE6F000E0101B76F08D0FEC1A0
:1045D00088F1B7C189F1FFC18AF1B8C18BF1020E30
:1045E0000101876F56D088C1B8F10101010E0101A8
:1045F000016F0101870E0101006F000E0101036FC1
:10460000000E0101026F000E0101056F120E010183
:10461000046FF9ECD9F03DD00101010E0101016FE9
:104620000101870E0101006F000E0101036F000EF2
:104630000101026F000E0101056F120E0101046FEE
:10464000F9ECD9F001018769010E0101886F21D0D1
:1046500001018751000AD8B47BD6010AD8B49BD691
:10466000030AD8B4B5D6010AD8B4CED6070AD8B44E
:10467000FED6010AD8B417D7020AD8B431D70E0A29
:10468000D8B449D7030AD8B466D7010AD8B4ABD78F
:10469000C3D70101010E0101016F0101870E010164
:1046A000006F110E0101026F60ECD9F00101986FEB
:1046B0000101010E0101586F0101870E0101576FC1
:1046C000000E01015A6F120E0101596F0101B45120
:1046D00024ECAAF0020E0001ED6F12000101B451AA
:1046E00004ECDCF0000E0001ED6F12000001ED5152
:1046F000000AD8B496D5010AD8B4B8D5030AD8A40C
:104700001200ECD701012C6F6D0E01012C65DAD07F
:10471000000E0101116F030E0101106F000E010167
:10472000096F0A0E0101086F000E0101036F640E8C
:104730000101026F01012CC100F10101016BB9EC13
:10474000CEF0010100C106F1010101C107F1C2EC87
:10475000C9F0090E0101062501010E6F000E0101CD
:10476000072101010F6F15ECDAF0B30E01010E25E0
:10477000F66EFE0E01010F21F76EF86A000EF822A8
:1047800009000101F5CF17F109000101F5CF18F17A
:104790000A000101F5CF19F1000E0101096F640E45
:1047A0000101086F01012CC106F10101076BC2EC88
:1047B000C9F0120E0101062501010E6F000E010164
:1047C000072101010F6F000E0101116F030E01019E
:1047D000106F15ECDAF0B30E01010E25F66EFE0E29
:1047E00001010F21F76EF86A000EF822090001019D
:1047F000F5CF14F109000101F5CF15F10A0001010F
:10480000F5CF16F1A2ECBBF014C129F115C12AF1C4
:1048100016C12BF1000E0101116F030E0101106F83
:10482000000E0101036F0A0E0101026F01012CC18C
:1048300000F10101016BB9ECCEF0010100C10EF1F4
:10484000010101C10FF115ECDAF0B30E01010E25E3
:10485000F66EFE0E01010F21F76EF86A000EF822C7
:1048600009000101F5CF17F109000101F5CF18F199
:104870000A000101F5CF19F129C114F12AC115F17E
:104880002BC116F1A2ECBBF014C126F115C127F122
:1048900016C128F126C114F127C115F128C116F15E
:1048A000000E0101176F000E0101186F3F0E01018C
:1048B000196FA2ECBBF014C123F115C124F116C18C
:1048C00025F112000A0E01012C6588D0000E0101AD
:1048D000116F030E0101106F000E0101036F0A0E2C
:1048E0000101026F01012CC100F10101016BB9EC62
:1048F000CEF0010100C10EF1010101C10FF115EC73
:10490000DAF0B30E01010E25F66EFE0E01010F2145
:10491000F76EF86A000EF82209000101F5CF17F1D1
:1049200009000101F5CF18F10A000101F5CF19F1D5
:10493000000E0101096F0A0E0101086F01012CC16F
:1049400006F10101076BC2ECC9F0090E0101062551
:1049500001010E6F000E0101072101010F6F000E12
:104960000101116F030E0101106F15ECDAF0B30EA7
:1049700001010E25F66EFE0E01010F21F76EF86A99
:10498000000EF82209000101F5CF14F10900010120
:10499000F5CF15F10A000101F5CF16F1A2ECBBF03D
:1049A00014C129F115C12AF116C12BF129C114F145
:1049B0002AC115F12BC116F1000E0101176F000E6F
:1049C0000101186F3F0E0101196FA2ECBBF014C179
:1049D00023F115C124F116C125F1120001012C515A
:1049E000030DB30EF324F66EFE0EF420F76EF86A94
:1049F000000EF82209000101F5CF14F109000101B0
:104A0000F5CF15F10A000101F5CF16F1000E0101F5
:104A1000176F000E0101186F3F0E0101196FA2EC14
:104A2000BBF014C123F115C124F116C125F1120008
:104A3000D3C200F30301030E0101016F0301000E55
:104A40000101006F0201020E0101036F0201D30E8A
:104A50000101026F000E0101056F130E0101046FC9
:104A600055ECCEF0010100C138F1010101C139F16D
:104A7000010139513811D8B42FD1070EF66EFF0E4F
:104A8000F76E000EF86E09000101F5CF34F1090050
:104A90000101F5CF35F109000101F5CF36F10A002A
:104AA0000101F5CF37F1000E01013A6FFFD0FF0E83
:104AB0000101046FD70E0101036FCBECDCF034C1B0
:104AC00010F135C111F136C112F137C113F122ECE9
:104AD000BAF010C13BF111C13CF112C13DF113C15B
:104AE0003EF101013E513B113C113D11D8B46CD057
:104AF000FF0E0101046FC60E0101036FCBECDCF069
:104B00000201D3070201020E0101016F0201D30E5F
:104B10000101006F130E0101026F60ECD9F0020178
:104B2000E66F3BC100F13CC101F13DC102F13EC164
:104B300003F1010E0101046F0201020E0101066F73
:104B40000201D30E0101056F8EECC1F03BC100F1F3
:104B50003CC101F13DC102F13EC103F1000E010172
:104B6000056F140E0101046F0201020E0101076FAF
:104B70000201E70E0101066FD5ECD6F00201020E2C
:104B80000101016F0201E70E0101006F0201020E37
:104B90000101036F0201D30E0101026F000E01013A
:104BA000056F140E0101046F55ECCEF001010151A7
:104BB00001010011D8A402D0010E01D0000E0101A4
:104BC0003A6FE2ECDCF072D0FF0E0101046FB50E1B
:104BD0000101036FCBECDCF00201D369070EF66E26
:104BE000FF0EF76E000EF86E09000101F5CF00F11F
:104BF00009000101F5CF01F109000101F5CF02F132
:104C00000A000101F5CF03F10B0EF66EFF0EF76EF1
:104C1000000EF86E0900F5CF28F10900F5CF29F153
:104C20000900F5CF2AF10900F5CF2BF1070EF66E3A
:104C3000FF0EF76E000EF86E0900F5CF2CF109009B
:104C4000F5CF2DF10900F5CF2EF10900F5CF2FF1A9
:104C50000101285101012C250101306F0101295169
:104C600001012D210101316F01012A5101012E2184
:104C70000101326F01012B5101012F210101336F1D
:104C8000FF0E010130250101046FFF0E01013121EA
:104C90000101056FFF0E010132210101066FFF0EB8
:104CA000010133210101076F6DECD2F001013A518E
:104CB000D8B4FDD622EED3F013EE00F0140EDECF02
:104CC000E6FFE82EFCD7FF0E0101046F930E0101F1
:104CD000036FCBECDCF01200FF0E0101046FA40E99
:104CE0000101036FCBECDCF0120001012FC133F1A5
:104CF0000101346B356B01012E350101333701E3BE
:104D00003481010133510101386F010132C133F1A6
:104D10000101346B356B010131350101333701E39A
:104D20003481010133510101376F01013851D8B489
:104D300012D0010137510101385DD8B013D0010103
:104D400038510008010137250101336F190E0101A7
:104D5000335DD8A007D030C12DF131C12EF132C161
:104D60002FF1120001013751D8B412D0010138518E
:104D70000101375DD8B013D001013751000801019E
:104D800038250101336F190E0101335DD8A007D01A
:104D90002DC12DF12EC12EF12FC12FF11200060EC3
:104DA0000101366F01012FAF02D00101368F0101E1
:104DB00032AF02D00101368D01012E8FFF0E0101AD
:104DC0002D17FF0E01012E17000E01012F170101F3
:104DD000318FFF0E01013017FF0E01013117000E58
:104DE00001013217010137510101385DD8B02AD0D5
:104DF0000101D8900101303701013137010132370B
:104E0000010137070101375101013819D8B414D015
:104E10000101360736C133F1070E01013317D8B44B
:104E20000BD0E6D70101D89001012F3301012E33B9
:104E300001012D330101382B010137510101386384
:104E4000F1D72FD0010138510101375DD8B029D0F9
:104E50000101D89001012D3701012E3701012F37B3
:104E6000010138070101375101013819D8B414D0B4
:104E70000101360736C133F1070E01013317D8B4EB
:104E80000BD0E6D70101D890010132330101313353
:104E9000010130330101372B010137510101386322
:104EA000F1D7010136AF12D0FF0E01012D1BFF0E0D
:104EB00001012E1BFF0E01012F1B010E01012D27E9
:104EC000000E01012E23000E01012F23010136AD3A
:104ED00012D0FF0E0101301BFF0E0101311BFF0E2E
:104EE0000101321B010E01013027000E01013123A7
:104EF000000E01013223000E0101366F01012D5118
:104F00000101302701012E510101312301012F51EF
:104F100001013223010132AF15D0FF0E0101301B18
:104F2000FF0E0101311BFF0E0101321B010E0101B9
:104F30003027000E01013123000E01013223010E42
:104F40000101366F30C100F131C101F132C102F10E
:104F500038C103F136C104F161ECC5F000C12DF197
:104F600001C12EF102C12FF112002D6E6D0E2D64C4
:104F7000A8D0000E126E030E116E000E0A6E0A0EFD
:104F8000096E000E046E640E036E2DC001F0026AFD
:104F900001ECD3F001C007F002C008F07CECD1F0C6
:104FA000090E07240F6E000E0820106EBAECDBF01D
:104FB000B30E0F24F66EFE0E1020F76EF86A000E88
:104FC000F8220900F5CF18F00900F5CF19F00A0012
:104FD000F5CF1AF0000E0A6E640E096E2DC007F0B0
:104FE000086A7CECD1F0120E07240F6E000E082028
:104FF000106E000E126E030E116EBAECDBF0B30EE3
:105000000F24F66EFE0E1020F76EF86A000EF822DE
:105010000900F5CF15F00900F5CF16F00A00F5CF1D
:1050200017F060ECC8F015C02AF016C02BF017C0BE
:105030002CF0000E126E030E116E000E046E0A0E9E
:10504000036E2DC001F0026A01ECD3F001C00FF035
:1050500002C010F0BAECDBF0B30E0F24F66EFE0EB9
:105060001020F76EF86A000EF8220900F5CF18F04C
:105070000900F5CF19F00A00F5CF1AF02AC015F093
:105080002BC016F02CC017F060ECC8F015C027F04C
:1050900016C028F017C029F027C015F028C016F058
:1050A00029C017F0000E186E000E196E3F0E1A6E12
:1050B00060ECC8F015C024F016C025F017C026F02B
:1050C00012000A0E2D6469D0000E126E030E116ECE
:1050D000000E046E0A0E036E2DC001F0026A01EC90
:1050E000D3F001C00FF002C010F0BAECDBF0B30E49
:1050F0000F24F66EFE0E1020F76EF86A000EF822EE
:105100000900F5CF18F00900F5CF19F00A00F5CF26
:105110001AF0000E0A6E0A0E096E2DC007F0086A1A
:105120007CECD1F0090E07240F6E000E0820106EE3
:10513000000E126E030E116EBAECDBF0B30E0F24EC
:10514000F66EFE0E1020F76EF86A000EF8220900C7
:10515000F5CF15F00900F5CF16F00A00F5CF17F0DE
:1051600060ECC8F015C02AF016C02BF017C02CF068
:105170002AC015F02BC016F02CC017F0000E186EC8
:10518000000E196E3F0E1A6E60ECC8F015C024F0C8
:1051900016C025F017C026F012002D50030DB30ED7
:1051A000F324F66EFE0EF420F76EF86A000EF82275
:1051B0000900F5CF15F00900F5CF16F00A00F5CF7C
:1051C00017F0000E186E000E196E3F0E1A6E60EC8E
:1051D000C8F015C024F016C025F017C026F0120044
:1051E000000E0101506F800E0101516F3F0E010151
:1051F000526FC00E0101485D000E01014959D8B03F
:1052000039D0600E0101485D000E01014959D8B046
:1052100013D0300E0101485D000E01014959D8A09C
:10522000B2D04E0E0101506F000E0101516F3F0EC2
:105230000101526F300E4BD0900E0101485D000EFF
:1052400001014959D8B00BD09C0E0101506F800E5E
:105250000101516F3E0E0101526F600E38D0EA0E0F
:105260000101506F000E0101516F3E0E0101526F9E
:10527000900E2DD0800E0101485D010E01014959AB
:10528000D8B049D0200E0101485D010E01014959F5
:10529000D8B021D0F00E0101485D000E010149593E
:1052A000D8B00BD0380E0101506F810E0101516F43
:1052B0003D0E0101526FC00E0AD0870E0101506FE2
:1052C000010E0101516F3D0E0101526FF00E0101FF
:1052D000485F000E56D0500E0101485D010E0101DD
:1052E0004959D8B00CD0D60E0101506F810E010182
:1052F000516F3C0E0101526F0101200E3FD0250E6F
:105300000101506F020E0101516F3C0E0101526FFD
:105310000101500E33D0E00E0101485D010E010184
:105320004959D8B020D0B00E0101485D010E0101ED
:105330004959D8B00CD0740E0101506F820E010192
:10534000516F3B0E0101526F0101800E17D0C30E49
:105350000101506F020E0101516F3B0E0101526FAE
:105360000101B00E0BD0120E0101506F830E01012E
:10537000516F3A0E0101526F0101E00E0101485FC9
:10538000010E0101495B300E0101485D000E010173
:105390004959D8A007D0000E0101496F000E010144
:1053A000486F1200000E0101306F000E0101316FD5
:1053B0003F0E0101326F50C117F151C118F152C1B6
:1053C00019F1010148C14AF1010149C14BF1D890DD
:1053D00001014A374B372B0E01014A25F66EFE0EAE
:1053E0004B21F76EF86A000EF82209000101F5CF93
:1053F00008F10A000101F5CF09F114ECDBF008C156
:1054000014F109C115F10AC116F1A2ECBBF014C1E7
:105410002DF115C12EF116C12FF175ECA6F02DC19D
:1054200039F12EC13AF12FC13BF1E4ECBAF039C1A8
:105430004CF13AC14DF13BC14EF13CC14FF14CC171
:1054400048F14DC149F112000101656F000E0101E3
:10545000606F000E01015F6F01016551D8B407D084
:10546000000E0101586F000E0101576F120001017B
:10547000655130ECD0F001016551DBECC4F0010165
:1054800021C163F1010122C164F101016451631181
:10549000D8A40BD001016551FAECD8F0000E01013F
:1054A000586F000E0101576F120063C161F164C1B2
:1054B00062F1010163510101595D01016451010172
:1054C0005A59D8B004D059C161F15AC162F10101F1
:1054D000F8B12CD00101E0C15BF10101E1C15CF147
:1054E00001015B1F5C1F5B4B5C2B0101E251010161
:1054F0005B270101E35101015C23D89001015C317C
:1055000001015E6F01015B3101015D6F01016351BA
:1055100001015D5D0101645101015E59D8A006D011
:1055200001016551FAECD8F00101F881010121EE89
:10553000E6F0DECF5BF1DDCF5CF1010161510101ED
:105540005B270101625101015C230101E25101016C
:105550005B5D0101E35101015C59D8A03FD001011D
:1055600021EEE6F0DECF5BF1DDCF5CF101015B1FE8
:105570005C1F5B4B5C2B0101E25101015B250101CA
:105580005F6F0101E35101015C210101606FE6C120
:105590001EF1E7C11FF1FBC120F157C121F158C134
:1055A00022F1010E0101236F5FC124F160C125F1D9
:1055B000D8ECC8F001015F5101015727010160518A
:1055C0000101582301015F510101615F0101605137
:1055D0000101625BE0C1E6F1E1C1E7F1E6C11EF164
:1055E000E7C11FF1FBC120F157C121F158C122F1E0
:1055F000010E0101236F61C124F162C125F1D8ECD4
:10560000C8F0010161510101E62701016251010168
:10561000E723010163510101595D01016451010159
:105620005A59D8A005D001016551FAECD8F019D02B
:105630000101F7BB16D00101F78B81ECDBF000C153
:105640005BF101C15CF102C15DF103C15EF1060EC7
:1056500001015B250101F26F000E01015C210101D6
:10566000F36F01015F51010161250101576F0101D4
:105670006051010162210101586F1200D3C200F391
:105680000301030E026E0301000E016E0201020E01
:10569000046E0201D30E036E000E066E130E056E2D
:1056A000CEECD1F001C039F002C03AF03A503910D6
:1056B000D8B4F5D0070EF66EFF0EF76E000EF86E3A
:1056C0000900F5CF35F00900F5CF36F00900F5CF28
:1056D00037F00A00F5CF38F0000E3B6ECDD0FF0E4C
:1056E000056ED70E046E36ECDDF035C011F036C015
:1056F00012F037C013F038C014F022ECC2F011C021
:105700003CF012C03DF013C03EF014C03FF03F50DB
:105710003C103D103E10D8B457D0FF0E056EC60E9B
:10572000046E36ECDDF00201D3070201020E026EB8
:105730000201D30E016E130E036ECBECDAF0020100
:10574000E66F3CC001F03DC002F03EC003F03FC038
